:100000000002040000000000DC020000DC0200002E
:10001000DC020000DC020000DC020000DC02000068
:10002000DC020000DC020000DC020000DC02000058
:10003000DC020000DC020000DC020000DC02000048
:10004000DC020000DC020000DC020000DC02000038
:10005000DC020000DC020000DC020000DC02000028
:10006000DC020000DC020000DC020000DC02000018
:10007000DC020000DC020000C8020000DC0200001C
:10008000DC020000DC020000DC020000DC020000F8
:10009000DC020000DC020000DC020000DC020000E8
:1000A000DC020000DC020000DC020000DC020000D8
:1000B000DC020000DC020000DC020000DC020000C8
:100400000F8020000E7F24000E01880000000000F5
:10041000000020000000E000020032000001200087
:100420002002880014000700650007000000E000BB
:1004300003003A0000002000010020000200370005
:100440000000200001002000810F70000100320038
:1004500014000700000020000000E000020032004D
:100460000000020000000000DA03020000000000AB
:100470000040DA000000FE004440A9000000200017
:100480000000E0000300320000002000A00188000E
:100490004440A800000006008A1F78008B1F7800E7
:1004A0000000060091018800800478000000EB0045
:1004B0001A003700E284440032A0B4009905BA0063
:1004C000E284440032A0B4009906BA00E2844400F9
:1004D00032A0B4000006EB00476FDE00FD07B2005B
:1004E000636CE10003003A00EBFF07000000EB0043
:1004F0000A003700606CE10004003A00005DEB0088
:100500008B05E900FDFF3E00040037006168E10053
:10051000010032000086EB000B00070019C7BA008B
:100520001905BA000E04E00003003A000A00E000DA
:10053000E0FF3A0000000600FE07B2009E018800BE
:100540008A047800F5FF3700395DBA008B05E900B1
:100550000C003200295DBA008B05E900080032006A
:100560000C00E00003003A00E284440032A0B40032
:10057000F5FF370019DDBA008B05E900FAFF3A00F4
:100580008904E800E184440032A0B40000000600C1
:100590003400F800881F780008002000A8018800B7
:1005A0004F0478000000FA008680A9000080FA005D
:1005B0003400F900004006000040DA000000FE00B0
:1005C000000005000200FA00000F78001E0078000D
:1005D000CF80DE0042FE21000289B90002017800CE
:1005E0006102B900840178000301410043FE21004B
:1005F0000300B80001014100820078005F0007009D
:100600000080FA00000006000000FA00E00120006F
:10061000303A8800213A800000FE2F000080600000
:10062000203A8800213A8000F0F32F00008060001B
:10063000203A880040A7A9004580A9004400A900ED
:100640004420A9002C03A9002C23A9002C43A800B6
:100650002C63A8002C83A8002CA3A8002D83A8003D
:100660002D63A8002D43A8002D23A800C002A800D8
:10067000C022A800C802A800C822A900C842A90038
:10068000C862A800C042A800C062A800C882A80032
:10069000C082A800C8A2A800C8C2A800C8E2A800DA
:1006A000C902A900C922A900C942A900C962A900BA
:1006B000C982A900C9A2A900C9C2A800C9E2A900AB
:1006C00001348000F00F2E00808060000030200098
:1006D00001007000003488000136800000FE2F0009
:1006E000008060000036880001368000F00F2E0088
:1006F00000806000003688001136800000FE2F0068
:10070000008060001036880051368000F00F2E0007
:10071000008060005036880081E0A8004460A90095
:1007200011028000F0F12F00008060000050A00056
:10073000100288007105800080FF2F00008060009B
:100740000010A000700588008680A9009680A8008F
:100750000080FA00000006000000FA00CC42A80069
:100760000071220097FF0700CC42A90080382100C9
:1007700094FF07000080FA0000000600F03FB1007F
:100780000180B10006003500EE0309000000000002
:10079000403FB1000180B100FBFF3D001000B00000
:1007A000203FB0000200350000800900000000007A
:1007B000000006000000FA0093FF0700CC42A800EA
:1007C000803E20007FFF0700CC42A900803E200031
:0807D0007CFF0700F9FF370070
:0200000401F009
:10000000FFFF0000FFFF0000FFFF000000000000F6
:100010002300000050000000F7000000DDFF00009A
:100020004CFF00004FFF000043FF00004BFF0000AB
:00000001FF
