:100000000002040000000000B4030000B40300007C
:10001000B4030000B4030000B4030000B403000004
:10002000B4030000B4030000B4030000B4030000F4
:10003000B4030000B4030000DE020000B4030000BB
:10004000B4030000B4030000B4030000B4030000D4
:100050008C030000B4030000B4030000B4030000EC
:100060006C030000B4030000B4030000B4030000FC
:10007000B4030000B4030000C8020000B403000091
:10008000B4030000B403000074030000B4030000D4
:10009000B4030000B4030000B4030000B403000084
:1000A000B4030000B4030000B4030000A003000088
:1000B000B4030000B40300007C030000B40300009C
:1000C000B4030000B4030000B4030000B403000054
:1000D000B4030000B4030000B4030000B403000044
:1000E00084030000B4030000B4030000B403000064
:1000F000B4030000B4030000B4030000B403000024
:10010000B4030000B4030000B4030000B403000013
:10011000B4030000B4030000B4030000B403000003
:10012000B4030000B4030000B4030000B4030000F3
:10013000B4030000B4030000B4030000B4030000E3
:10014000B4030000B4030000B4030000B4030000D3
:10015000B4030000B4030000B4030000B4030000C3
:08016000B4030000B403000029
:10020800B4030000B4030000B4030000B40300000A
:10021800B4030000B4030000B4030000B4030000FA
:10022800B4030000B4030000B4030000B4030000EA
:10023800B4030000B4030000B4030000B4030000DA
:10024800B4030000B4030000B4030000B4030000CA
:10025800B4030000B4030000B4030000B4030000BA
:10026800B4030000B4030000B4030000B4030000AA
:10027800B4030000B4030000B4030000B40300009A
:10028800B4030000B4030000B4030000B40300008A
:10029800B4030000B4030000B4030000B40300007A
:1002A800B4030000B4030000B4030000B40300006A
:1002B800B4030000B4030000B4030000B40300005A
:1002C800B4030000B4030000B4030000B40300004A
:1002D800B4030000B4030000B4030000B40300003A
:1002E800B4030000B4030000B4030000B40300002A
:1002F800B4030000B4030000B4030000B40300001A
:10030800B4030000B4030000B4030000B403000009
:10031800B4030000B4030000B4030000B4030000F9
:10032800B4030000B4030000B4030000B4030000E9
:10033800B4030000B4030000B4030000B4030000D9
:10034800B4030000B4030000B4030000B4030000C9
:10035800B4030000B4030000B4030000B4030000B9
:100400000F0B22002E2524000E01880000000000A2
:10041000000020000000E000020032000001200087
:100420002002880014000700D70007000000E00049
:1004300003003A00C07A20000100200002003700CB
:100440000000200001002000810F70000100320038
:1004500014000700000020000000E000020032004D
:100460000000020000000000700802000000000010
:100470000040DA000000FE004440A9000000200017
:100480000000E0000300320000002000A00188000E
:100490004440A800000006008A1F78008B1F7800E7
:1004A0000000060091018800800478000000EB0045
:1004B0001A003700E284440032A0B4009905BA0063
:1004C000E284440032A0B4009906BA00E2844400F9
:1004D00032A0B4000006EB00476FDE00FD07B2005B
:1004E000636CE10003003A00EBFF07000000EB0043
:1004F0000A003700606CE10004003A00005DEB0088
:100500008B05E900FDFF3E00040037006168E10053
:10051000010032000086EB000B00070019C7BA008B
:100520001905BA000E04E00003003A000A00E000DA
:10053000E0FF3A0000000600FE07B2009E018800BE
:100540008A047800F5FF3700395DBA008B05E900B1
:100550000C003200295DBA008B05E900080032006A
:100560000C00E00003003A00E284440032A0B40032
:10057000F5FF370019DDBA008B05E900FAFF3A00F4
:100580008904E800E184440032A0B40000000600C1
:100590003400F800881F780008002000A8018800B7
:1005A0004F0478000000FA00E21FA8008680A9002E
:1005B0000080FA003400F900004006003600F80020
:1005C000809FBE00829FBE00849FBE00869FBE00AB
:1005D0002200F8002400F8002600F8000000FA00CD
:1005E000E6DFBF000004E00013003A00013C2400F5
:1005F00020FF80004501DD00008020000000410058
:1006000001017800800078000001200058000700F8
:10061000001F8200C10A20000002780081027800D9
:100620001301C0000100CC0000FF800000804000EA
:1006300000FF8800120037000138240020FF8000EE
:100640004501DD000080200000004100010178002C
:10065000800078000001200045000700001D820096
:10066000C10A200000027800810278001301C00056
:100670000100CC0000FF80000080400000FF8800E7
:1006800020FF80000000E80020FF880021FF80009C
:10069000F00B2000808F500001003A0021E3A900F8
:1006A000E6DFBF000004A200E6FFB7008480A900D7
:1006B0000080FA002600F9002400F9002200F90069
:1006C0004F03BE004F02BE004F01BE004F00BE00F0
:1006D0003600F900004006000000FA0085C0A900BD
:1006E0000080FA00004006000000FA008700A90020
:1006F0000080FA00004006000000FA008880A9008F
:100700000080FA00004006000000FA0089C0A9003D
:100710000080FA00004006003400F800881F7800CE
:1007200008002000A80188004F0478000000FA00AB
:100730008540A9000080FA003400F900004006005E
:100740003400F800881F780008002000A801880005
:100750004F0478000000FA008820A9000080FA0009
:100760003400F900004006000040DA000000FE00FE
:10077000810178000000E90000800900B2187800CB
:100780000300780000000600000005000400FA00E5
:10079000100798000000EB00000F780004003700FD
:1007A00000C42900010020005E0207001E0FE800BF
:1007B0001E0090009E007800808F5000F8FF3500EA
:1007C0000080FA00000006000400FA0010079800FC
:1007D0000000EB00000F780007003700CC42A800B3
:1007E000803E2000E9FF0700CC42A900803E2000A7
:1007F000E6FF07001E0FE8001E0090009E00780034
:10080000808F5000F5FF350080BB2000DFFF070020
:100810000080FA00000006000000FA00E00120005D
:10082000303A8800213A800000FE2F0000806000EE
:10083000203A8800213A8000F0F32F000080600009
:10084000203A88001200200080072000A109200023
:10085000337420008049780081497800824978000B
:10086000103A8000000178000200A000600420001F
:1008700071052000237420008049780081497800A8
:100880008249780000000000113A80000000270033
:100890008080600000002100808F5000FAFF3A0045
:1008A00000000000113A800000022000008060007B
:1008B0000000E000FBFF320040A7A9004580A9002E
:1008C0004400A9004420A9002C03A9002C23A9005E
:1008D0002C43A8002C63A8002C83A8002CA3A800FC
:1008E0002D83A8002D63A8002D43A8002D23A80068
:1008F000C002A800C022A800C802A800C822A900FF
:10090000C842A900C862A800C042A800C062A800EE
:10091000C882A800C082A800C8A2A800C8C2A800B7
:10092000C8E2A800C902A900C922A900C942A900B9
:10093000C962A900C982A900C9A2A900C9C2A800A8
:10094000C9E2A9004135800000FE2F000080600050
:100950007000B300403588004136800000FE2F0053
:10096000008060000030A0004036880041368000E2
:10097000F00F2E00808060000070200001007000E9
:10098000403688005136800000FE2F000080600055
:100990009000B300503688006136800000FE2F00C2
:1009A00000806000B000B3006036880061368000CF
:1009B000F00F2E008080600000A020000100700079
:1009C000603688006135800000FE2F0000806000E6
:1009D000E000B3006035880071368000F00F2E0013
:1009E0008080600000C02000010070007036880028
:1009F00001348000F00F2E00808060000030200065
:100A000001007000003488000136800000FE2F00D5
:100A1000008060000036880001368000F00F2E0054
:100A200000806000003688001136800000FE2F0034
:100A3000008060001036880051368000F00F2E00D4
:100A4000008060005036880021E3A90021A3A8009F
:100A50002183A9002143A900011980000030200052
:100A6000010070000019880001198000F0F12F00CA
:100A7000008060000060A000001988002063A800CA
:100A80002043A8002023A80011198000F0FF2100B6
:100A900000806000101988002343A900111980000C
:100AA000F0CF2F00008060000080A00010198800A7
:100AB0001119800030FC2F00008060000020A00091
:100AC000101988002223A9002203A90025E3A90008
:100AD0002119800000F02100010070002019880019
:100AE000E0C1B30024E3B7009119800080FF2F001C
:100AF000008060000020A000901988002603A90053
:100B00003119800090FF2F000080600030198800AC
:100B10004119800000FE2F00008060000000A0004E
:100B20004019880028E3A90085A0A90095A0A90084
:100B300081E3A90081C3A90081A3A9008183A90041
:100B40008163A900011C8000F0FC2F000080600080
:100B50000050A000001C8800011C8000C0FF2F0076
:100B6000008060000010A000001C8800111C8000A4
:100B700000F82F0000806000D000B300101C880037
:100B800000022000501C8800003C2000201C88002F
:100B900000382000301C880000302000401C8800F5
:100BA0008480A9009480A80081E3A80013E1A90033
:100BB00012C1A90091088000F0FC2F0000806000A5
:100BC0000050A000900888000A21EF00204E20006D
:100BD0007008880013A1A8008500A9009500A9004D
:100BE00013E1A80041E2A90041A2A8004342A900E4
:100BF00042A2A8004362A9004322A8004302A90020
:100C000042C2A900101280003000B3001012880008
:100C10001112800030FE2F0000806000C000B30081
:100C20001012880045E2A90042E2A9008540A9000F
:100C30009540A9008DE3A90099E3A9008DC3A80000
:100C400099C3A8008DA3A80099A3A9008D83A9002A
:100C50009983A9008D63A9009963A900611C800094
:100C6000F0FC2F0000806000601C8800C11C800028
:100C7000F0FC2F0000806000C01C8800611C800018
:100C8000C0FF2F00008060000000A000601C8800F2
:100C9000C11C8000C0FF2F0000806000C01C8800C5
:100CA000711C800000F82F0000806000A000B300DD
:100CB000701C8800D11C800000F82F0000806000AC
:100CC000A000B300D01C880000202000B01C8800C9
:100CD00000202000101D880000402000801C88009B
:100CE00000402000E01C880000402000901C88008C
:100CF00000402000F01C880080242000A01C8800F8
:100D000080242000001D880085C0A9008700A9005C
:100D100095C0A8009700A8008DE3A80099E3A8005B
:100D200061E2A90061A2A8006342A90062A2A80032
:100D30006362A9006322A8006302A90062C2A8003E
:100D400011138000C0FF2F00008060000000A00091
:100D50001013880010138000C001B3001013880026
:100D600065E2A90062E2A9008820A9009820A900F4
:100D7000A5E3A900B1E3A900A5C3A800B1C3A800D9
:100D8000A5A3A800B1A3A900A583A900B183A900C8
:100D9000A563A900B163A900211D8000F0FC2F000C
:100DA00000806000201D8800811D8000F0FC2F0065
:100DB00000806000801D8800211D8000C0FF2F0082
:100DC000008060000000A000201D8800811D8000C0
:100DD000C0FF2F0000806000801D8800311D800052
:100DE00000F82F00808060001002200001007000D9
:100DF000301D8800911D800000F82F008080600069
:100E00001002200001007000901D8800A00020004A
:100E1000701D8800A0002000D01D8800C036200072
:100E2000401D880080352000A01D8800C0362000AD
:100E3000501D880080352000B01D880080262000CD
:100E4000601D880080262000C01D88008880A900C1
:100E500089C0A9009880A80099C0A800A5E3A800AF
:100E6000B1E3A80061E2A80081E0A8004460A90005
:100E700011028000F0F12F00008060000050A000FF
:100E8000100288007105800080FF2F000080600044
:100E90000010A000700588008680A9009680A80038
:100EA0000080FA00000006000000FA0000000000C8
:100EB0000080FA00000006000000FA0000000000B8
:100EC0000080FA00000006000000FA0000000000A8
:100ED0000080FA00000006000000FA000000000098
:100EE0000080FA00000006000000FA000000000088
:100EF0000080FA00000006000000FA000000000078
:100F00000080FA00000006000000FA000000000067
:100F10000080FA00000006000000FA0011FF8000C7
:100F200000042000008060000000E00006003200A5
:100F3000CC42A8000071220014FE0700CC42A90098
:100F4000E2DFA90002003700803821000FFE070011
:100F50000080FA000000060000080000E017000012
:100F600000000000E01F000006000000000000007C
:100F7000C04300004000000000000000804300006B
:100F800040000000000000000044000000040000D9
:100F9000000000006C43000014000000000000008E
:100FA00058430000140000000000000062420000EE
:100FB000F600000000000000E81F0000C80000006C
:100FC00002000000CD0C99001966260033330000A2
:100FD00040000000000000000000000000000000D1
:100FE0000000000000000000000000000000000001
:100FF00000000000000000000000000000000000F1
:1010000000000000000000000000000000000000E0
:1010100000000000000000000000000000000000D0
:1010200000000000000000000000000000000000C0
:1010300000000000000000000000000000000000B0
:1010400000000000000000000000000000000000A0
:101050000000000000000000000000000000000090
:101060000000000000000000000000000000000080
:101070000000000000000000000000000000000070
:101080000000000000000000000000000000000060
:101090000000000000000000000000000000000050
:1010A0000000000000000000000000000000000040
:1010B0000000000000000000000000000000000030
:1010C0000000000000000000000000000000000020
:1010D000E61F000002000000000000000000000009
:1010E0000000FA00CCFD070030002000B6FD07002C
:1010F000E2DFA8000040FE0010002000B2FD070063
:1011000010FF8000610060000000E000030032007A
:1011100081FF0700E21FA900F5FF3700E2FFA800EA
:10112000F3FF3700F03FB1000180B1000600350049
:10113000EE03090000000000403FB1000180B10053
:10114000FBFF3D001000B000203FB0000200350062
:0C11500000800900000000000000060004
:0200000401F009
:10000000FFFF0000FFFF0000FFFF000000000000F6
:100010002300000050000000F7000000DDFF00009A
:100020004CFF00004FFF000043FF00004BFF0000AB
:00000001FF
